{
  "contractName": "Bank",
  "abi": [
    {
      "anonymous": false,
      "inputs": [
        {
          "indexed": true,
          "internalType": "address",
          "name": "accountHolder",
          "type": "address"
        }
      ],
      "name": "AccountCreated",
      "type": "event"
    },
    {
      "anonymous": false,
      "inputs": [
        {
          "indexed": true,
          "internalType": "address",
          "name": "accountHolder",
          "type": "address"
        },
        {
          "indexed": false,
          "internalType": "uint256",
          "name": "amount",
          "type": "uint256"
        }
      ],
      "name": "Deposit",
      "type": "event"
    },
    {
      "anonymous": false,
      "inputs": [
        {
          "indexed": true,
          "internalType": "address",
          "name": "from",
          "type": "address"
        },
        {
          "indexed": true,
          "internalType": "address",
          "name": "to",
          "type": "address"
        },
        {
          "indexed": false,
          "internalType": "uint256",
          "name": "amount",
          "type": "uint256"
        }
      ],
      "name": "Transfer",
      "type": "event"
    },
    {
      "anonymous": false,
      "inputs": [
        {
          "indexed": true,
          "internalType": "address",
          "name": "accountHolder",
          "type": "address"
        },
        {
          "indexed": false,
          "internalType": "uint256",
          "name": "amount",
          "type": "uint256"
        }
      ],
      "name": "Withdrawal",
      "type": "event"
    },
    {
      "inputs": [],
      "name": "createAccount",
      "outputs": [],
      "stateMutability": "nonpayable",
      "type": "function"
    },
    {
      "inputs": [],
      "name": "deposit",
      "outputs": [],
      "stateMutability": "payable",
      "type": "function"
    },
    {
      "inputs": [
        {
          "internalType": "uint256",
          "name": "amount",
          "type": "uint256"
        }
      ],
      "name": "withdraw",
      "outputs": [],
      "stateMutability": "nonpayable",
      "type": "function"
    },
    {
      "inputs": [
        {
          "internalType": "address",
          "name": "to",
          "type": "address"
        },
        {
          "internalType": "uint256",
          "name": "amount",
          "type": "uint256"
        }
      ],
      "name": "transfer",
      "outputs": [],
      "stateMutability": "nonpayable",
      "type": "function"
    },
    {
      "inputs": [],
      "name": "getBalance",
      "outputs": [
        {
          "internalType": "uint256",
          "name": "",
          "type": "uint256"
        }
      ],
      "stateMutability": "view",
      "type": "function"
    }
  ],
  "bytecode": "0x608060405234801561001057600080fd5b50611001806100206000396000f3fe60806040526004361061004a5760003560e01c806312065fe01461004f5780632e1a7d4d1461007a5780639dca362f146100a3578063a9059cbb146100ba578063d0e30db0146100e3575b600080fd5b34801561005b57600080fd5b506100646100ed565b6040516100719190610e7c565b60405180910390f35b34801561008657600080fd5b506100a1600480360381019061009c9190610aac565b6101c4565b005b3480156100af57600080fd5b506100b8610409565b005b3480156100c657600080fd5b506100e160048036038101906100dc9190610a70565b610561565b005b6100eb6108cd565b005b60008060003373ffffffffffffffffffffffffffffffffffffffff1673ffffffffffffffffffffffffffffffffffffffff16815260200190815260200160002060010160009054906101000a900460ff1661017d576040517f08c379a000000000000000000000000000000000000000000000000000000000815260040161017490610ddc565b60405180910390fd5b6000803373ffffffffffffffffffffffffffffffffffffffff1673ffffffffffffffffffffffffffffffffffffffff16815260200190815260200160002060000154905090565b6000803373ffffffffffffffffffffffffffffffffffffffff1673ffffffffffffffffffffffffffffffffffffffff16815260200190815260200160002060010160009054906101000a900460ff16610252576040517f08c379a000000000000000000000000000000000000000000000000000000000815260040161024990610ddc565b60405180910390fd5b60008111610295576040517f08c379a000000000000000000000000000000000000000000000000000000000815260040161028c90610e3c565b60405180910390fd5b806000803373ffffffffffffffffffffffffffffffffffffffff1673ffffffffffffffffffffffffffffffffffffffff168152602001908152602001600020600001541015610319576040517f08c379a000000000000000000000000000000000000000000000000000000000815260040161031090610d7c565b60405180910390fd5b806000803373ffffffffffffffffffffffffffffffffffffffff1673ffffffffffffffffffffffffffffffffffffffff168152602001908152602001600020600001600082825461036a9190610efe565b925050819055503373ffffffffffffffffffffffffffffffffffffffff166108fc829081150290604051600060405180830381858888f193505050501580156103b7573d6000803e3d6000fd5b503373ffffffffffffffffffffffffffffffffffffffff167f7fcf532c15f0a6db0bd6d0e038bea71d30d808c7d98cb3bf7268a95bf5081b65826040516103fe9190610e7c565b60405180910390a250565b6000803373ffffffffffffffffffffffffffffffffffffffff1673ffffffffffffffffffffffffffffffffffffffff16815260200190815260200160002060010160009054906101000a900460ff1615610498576040517f08c379a000000000000000000000000000000000000000000000000000000000815260040161048f90610e5c565b60405180910390fd5b604051806040016040528060008152602001600115158152506000803373ffffffffffffffffffffffffffffffffffffffff1673ffffffffffffffffffffffffffffffffffffffff1681526020019081526020016000206000820151816000015560208201518160010160006101000a81548160ff0219169083151502179055509050503373ffffffffffffffffffffffffffffffffffffffff167f805996f252884581e2f74cf3d2b03564d5ec26ccc90850ae12653dc1b72d1fa260405160405180910390a2565b6000803373ffffffffffffffffffffffffffffffffffffffff1673ffffffffffffffffffffffffffffffffffffffff16815260200190815260200160002060010160009054906101000a900460ff166105ef576040517f08c379a00000000000000000000000000000000000000000000000000000000081526004016105e690610ddc565b60405180910390fd5b600073ffffffffffffffffffffffffffffffffffffffff168273ffffffffffffffffffffffffffffffffffffffff16141561065f576040517f08c379a000000000000000000000000000000000000000000000000000000000815260040161065690610e1c565b60405180910390fd5b6000808373ffffffffffffffffffffffffffffffffffffffff1673ffffffffffffffffffffffffffffffffffffffff16815260200190815260200160002060010160009054906101000a900460ff166106ed576040517f08c379a00000000000000000000000000000000000000000000000000000000081526004016106e490610dbc565b60405180910390fd5b60008111610730576040517f08c379a000000000000000000000000000000000000000000000000000000000815260040161072790610d9c565b60405180910390fd5b806000803373ffffffffffffffffffffffffffffffffffffffff1673ffffffffffffffffffffffffffffffffffffffff1681526020019081526020016000206000015410156107b4576040517f08c379a00000000000000000000000000000000000000000000000000000000081526004016107ab90610d7c565b60405180910390fd5b806000803373ffffffffffffffffffffffffffffffffffffffff1673ffffffffffffffffffffffffffffffffffffffff16815260200190815260200160002060000160008282546108059190610efe565b92505081905550806000808473ffffffffffffffffffffffffffffffffffffffff1673ffffffffffffffffffffffffffffffffffffffff168152602001908152602001600020600001600082825461085d9190610ea8565b925050819055508173ffffffffffffffffffffffffffffffffffffffff163373ffffffffffffffffffffffffffffffffffffffff167fddf252ad1be2c89b69c2b068fc378daa952ba7f163c4a11628f55a4df523b3ef836040516108c19190610e7c565b60405180910390a35050565b6000803373ffffffffffffffffffffffffffffffffffffffff1673ffffffffffffffffffffffffffffffffffffffff16815260200190815260200160002060010160009054906101000a900460ff1661095b576040517f08c379a000000000000000000000000000000000000000000000000000000000815260040161095290610ddc565b60405180910390fd5b6000341161099e576040517f08c379a000000000000000000000000000000000000000000000000000000000815260040161099590610dfc565b60405180910390fd5b346000803373ffffffffffffffffffffffffffffffffffffffff1673ffffffffffffffffffffffffffffffffffffffff16815260200190815260200160002060000160008282546109ef9190610ea8565b925050819055503373ffffffffffffffffffffffffffffffffffffffff167fe1fffcc4923d04b559f4d29a8bfc6cda04eb5b0d3c460751c2402c5c5cc9109c34604051610a3c9190610e7c565b60405180910390a2565b600081359050610a5581610f9d565b92915050565b600081359050610a6a81610fb4565b92915050565b60008060408385031215610a8357600080fd5b6000610a9185828601610a46565b9250506020610aa285828601610a5b565b9150509250929050565b600060208284031215610abe57600080fd5b6000610acc84828501610a5b565b91505092915050565b6000610ae2601483610e97565b91507f496e73756666696369656e742062616c616e63650000000000000000000000006000830152602082019050919050565b6000610b22602983610e97565b91507f5472616e7366657220616d6f756e74206d75737420626520677265617465722060008301527f7468616e207a65726f00000000000000000000000000000000000000000000006020830152604082019050919050565b6000610b88602083610e97565b91507f526563697069656e74206163636f756e7420646f6573206e6f742065786973746000830152602082019050919050565b6000610bc8601683610e97565b91507f4163636f756e7420646f6573206e6f74206578697374000000000000000000006000830152602082019050919050565b6000610c08602883610e97565b91507f4465706f73697420616d6f756e74206d7573742062652067726561746572207460008301527f68616e207a65726f0000000000000000000000000000000000000000000000006020830152604082019050919050565b6000610c6e602383610e97565b91507f43616e6e6f74207472616e7366657220746f20746865207a65726f206164647260008301527f65737300000000000000000000000000000000000000000000000000000000006020830152604082019050919050565b6000610cd4602b83610e97565b91507f5769746864726177616c20616d6f756e74206d7573742062652067726561746560008301527f72207468616e207a65726f0000000000000000000000000000000000000000006020830152604082019050919050565b6000610d3a601683610e97565b91507f4163636f756e7420616c726561647920657869737473000000000000000000006000830152602082019050919050565b610d7681610f64565b82525050565b60006020820190508181036000830152610d9581610ad5565b9050919050565b60006020820190508181036000830152610db581610b15565b9050919050565b60006020820190508181036000830152610dd581610b7b565b9050919050565b60006020820190508181036000830152610df581610bbb565b9050919050565b60006020820190508181036000830152610e1581610bfb565b9050919050565b60006020820190508181036000830152610e3581610c61565b9050919050565b60006020820190508181036000830152610e5581610cc7565b9050919050565b60006020820190508181036000830152610e7581610d2d565b9050919050565b6000602082019050610e916000830184610d6d565b92915050565b600082825260208201905092915050565b6000610eb382610f64565b9150610ebe83610f64565b9250827fffffffffffffffffffffffffffffffffffffffffffffffffffffffffffffffff03821115610ef357610ef2610f6e565b5b828201905092915050565b6000610f0982610f64565b9150610f1483610f64565b925082821015610f2757610f26610f6e565b5b828203905092915050565b6000610f3d82610f44565b9050919050565b600073ffffffffffffffffffffffffffffffffffffffff82169050919050565b6000819050919050565b7f4e487b7100000000000000000000000000000000000000000000000000000000600052601160045260246000fd5b610fa681610f32565b8114610fb157600080fd5b50565b610fbd81610f64565b8114610fc857600080fd5b5056fea26469706673582212206e22d2a801164bc81c545870b76e520d5bb8578751d8a75b67d042544d928eeb64736f6c63430008000033",
  "immutableReferences": {},
  "source": "// SPDX-License-Identifier: MIT\r\npragma solidity ^0.8.0;\r\n\r\ncontract Bank {\r\n    // Data structure to represent an account\r\n    struct Account {\r\n        uint256 balance;\r\n        bool exists;\r\n    }\r\n\r\n    // Mapping of addresses to accounts\r\n    mapping(address => Account) private accounts;\r\n\r\n    // Event declarations\r\n    event AccountCreated(address indexed accountHolder);\r\n    event Deposit(address indexed accountHolder, uint256 amount);\r\n    event Withdrawal(address indexed accountHolder, uint256 amount);\r\n    event Transfer(address indexed from, address indexed to, uint256 amount);\r\n\r\n    // Modifier to check if the account exists\r\n    modifier onlyExistingAccount() {\r\n        require(accounts[msg.sender].exists, \"Account does not exist\");\r\n        _;\r\n    }\r\n\r\n    // Function to create an account\r\n    function createAccount() public {\r\n        require(!accounts[msg.sender].exists, \"Account already exists\");\r\n        accounts[msg.sender] = Account(0, true);\r\n        emit AccountCreated(msg.sender);\r\n    }\r\n\r\n    // Function to deposit funds\r\n    function deposit() public payable onlyExistingAccount {\r\n        require(msg.value > 0, \"Deposit amount must be greater than zero\");\r\n        accounts[msg.sender].balance += msg.value;\r\n        emit Deposit(msg.sender, msg.value);\r\n    }\r\n\r\n    // Function to withdraw funds\r\n    function withdraw(uint256 amount) public onlyExistingAccount {\r\n        require(amount > 0, \"Withdrawal amount must be greater than zero\");\r\n        require(accounts[msg.sender].balance >= amount, \"Insufficient balance\");\r\n        accounts[msg.sender].balance -= amount;\r\n        payable(msg.sender).transfer(amount);\r\n        emit Withdrawal(msg.sender, amount);\r\n    }\r\n\r\n    // Function to transfer funds to another account\r\n    function transfer(address to, uint256 amount) public onlyExistingAccount {\r\n        require(to != address(0), \"Cannot transfer to the zero address\");\r\n        require(accounts[to].exists, \"Recipient account does not exist\");\r\n        require(amount > 0, \"Transfer amount must be greater than zero\");\r\n        require(accounts[msg.sender].balance >= amount, \"Insufficient balance\");\r\n\r\n        accounts[msg.sender].balance -= amount;\r\n        accounts[to].balance += amount;\r\n        emit Transfer(msg.sender, to, amount);\r\n    }\r\n\r\n    // Function to check account balance\r\n    function getBalance() public view onlyExistingAccount returns (uint256) {\r\n        return accounts[msg.sender].balance;\r\n    }\r\n}\r\n",
  "sourcePath": "C:\\Users\\krpra\\Desktop\\DApp\\DappBank\\contracts\\Bank.sol",
  "compiler": {
    "name": "solc",
    "version": "0.8.0+commit.c7dfd78e.Emscripten.clang"
  },
  "schemaVersion": "3.4.16",
  "updatedAt": "2025-02-03T16:26:00.249Z",
  "devdoc": {
    "kind": "dev",
    "methods": {},
    "version": 1
  },
  "userdoc": {
    "kind": "user",
    "methods": {},
    "version": 1
  }
}